:100000001AC029C028C027C026C0A4C024C023C04D
:1000100022C021C020C01FC01EC01DC01CC00000C7
:100020000000380000000000370002020202020255
:1000300001020408102011241FBECFE5D2E0DEBF6C
:10004000CDBF20E0A0E6B0E001C01D92A936B20706
:10005000E1F7CAD0E3C0D4CF3FB7F89480916500F0
:1000600090916600A0916700B091680022B708B631
:1000700001FE05C02F3F19F00196A11DB11D3FBF24
:10008000BA2FA92F982F8827BC01CD01620F711DAF
:10009000811D911D43E0660F771F881F991F4A95A8
:1000A000D1F70895CF92DF92EF92FF92CF93DF9333
:1000B000D3DFEB0188EEC82E83E0D82EE12CF12CA3
:1000C000CBDF6C1B7D0B683E7340A0F0C114D104E4
:1000D000E104F10439F4DF91CF91FF90EF90DF90CC
:1000E000CF90089581E0C81AD108E108F108C851FD
:1000F000DC4FE6CFC114D104E104F10409F7EBCFE2
:1001000090E0FC01E05DFF4F2491865D9F4FFC0174
:100110008491882399F090E0880F991FFC01EC5D91
:10012000FF4FA591B491FC01E25EFF4F8591949140
:100130008FB7F894EC91E22BEC938FBF0895811167
:1001400005C08FB7F894C2988FBF08958FB7F89401
:10015000C29AFACF1F920F920FB60F9211242F93CB
:100160003F938F939F93AF93BF9380916100909142
:100170006200A0916300B09164003091600026E0BD
:10018000230F2D3768F129E8230F0396A11DB11D18
:10019000209360008093610090936200A0936300BD
:1001A000B09364008091650090916600A091670013
:1001B000B09168000196A11DB11D809365009093D8
:1001C0006600A0936700B0936800BF91AF919F91C4
:1001D0008F913F912F910F900FBE0F901F90189508
:1001E0000296A11DB11DD4CF83E08ABD83BF789450
:1001F00089B7826089BF80E48CBD8FEF8DBD87ECAD
:1002000080BF86E886B982E07BDF86E079DF81E027
:1002100096DF48DF80E093DF45DFF9CFF894FFCF2A
:00000001FF
